{
  "contractName": "Election",
  "abi": [
    {
      "inputs": [
        {
          "internalType": "address payable[]",
          "name": "candidateNames",
          "type": "address[]"
        },
        {
          "internalType": "uint256",
          "name": "_maxVotes",
          "type": "uint256"
        }
      ],
      "stateMutability": "nonpayable",
      "type": "constructor"
    },
    {
      "anonymous": false,
      "inputs": [
        {
          "indexed": false,
          "internalType": "address",
          "name": "voter",
          "type": "address"
        },
        {
          "indexed": false,
          "internalType": "address",
          "name": "voted",
          "type": "address"
        }
      ],
      "name": "Vote",
      "type": "event"
    },
    {
      "inputs": [
        {
          "internalType": "uint256",
          "name": "",
          "type": "uint256"
        }
      ],
      "name": "candidateList",
      "outputs": [
        {
          "internalType": "address payable",
          "name": "",
          "type": "address"
        }
      ],
      "stateMutability": "view",
      "type": "function",
      "constant": true
    },
    {
      "inputs": [],
      "name": "maxVotes",
      "outputs": [
        {
          "internalType": "uint256",
          "name": "",
          "type": "uint256"
        }
      ],
      "stateMutability": "view",
      "type": "function",
      "constant": true
    },
    {
      "inputs": [],
      "name": "totalVotes",
      "outputs": [
        {
          "internalType": "uint256",
          "name": "",
          "type": "uint256"
        }
      ],
      "stateMutability": "view",
      "type": "function",
      "constant": true
    },
    {
      "inputs": [
        {
          "internalType": "address",
          "name": "",
          "type": "address"
        }
      ],
      "name": "votesReceived",
      "outputs": [
        {
          "internalType": "uint256",
          "name": "",
          "type": "uint256"
        }
      ],
      "stateMutability": "view",
      "type": "function",
      "constant": true
    },
    {
      "inputs": [
        {
          "internalType": "uint256",
          "name": "",
          "type": "uint256"
        }
      ],
      "name": "winners",
      "outputs": [
        {
          "internalType": "address payable",
          "name": "",
          "type": "address"
        }
      ],
      "stateMutability": "view",
      "type": "function",
      "constant": true
    },
    {
      "inputs": [
        {
          "internalType": "address",
          "name": "candidate",
          "type": "address"
        }
      ],
      "name": "voteForCandidate",
      "outputs": [],
      "stateMutability": "payable",
      "type": "function",
      "payable": true
    },
    {
      "inputs": [],
      "name": "reward",
      "outputs": [],
      "stateMutability": "nonpayable",
      "type": "function"
    },
    {
      "inputs": [],
      "name": "reset",
      "outputs": [],
      "stateMutability": "nonpayable",
      "type": "function"
    },
    {
      "inputs": [
        {
          "internalType": "address payable[]",
          "name": "candidateNames",
          "type": "address[]"
        },
        {
          "internalType": "uint256",
          "name": "_maxVotes",
          "type": "uint256"
        }
      ],
      "name": "modifyParams",
      "outputs": [],
      "stateMutability": "nonpayable",
      "type": "function"
    },
    {
      "inputs": [],
      "name": "getSizeCandidate",
      "outputs": [
        {
          "internalType": "uint256",
          "name": "",
          "type": "uint256"
        }
      ],
      "stateMutability": "view",
      "type": "function",
      "constant": true
    },
    {
      "inputs": [],
      "name": "getSizeWinners",
      "outputs": [
        {
          "internalType": "uint256",
          "name": "",
          "type": "uint256"
        }
      ],
      "stateMutability": "view",
      "type": "function",
      "constant": true
    }
  ],
  "bytecode": "0x60806040523480156200001157600080fd5b5060405162001b4f38038062001b4f833981810160405281019062000037919062000225565b336000806101000a81548173ffffffffffffffffffffffffffffffffffffffff021916908373ffffffffffffffffffffffffffffffffffffffff16021790555081600490805190602001906200008f929190620000a7565b50806001819055506000600281905550505062000383565b82805482825590600052602060002090810192821562000123579160200282015b82811115620001225782518260006101000a81548173ffffffffffffffffffffffffffffffffffffffff021916908373ffffffffffffffffffffffffffffffffffffffff16021790555091602001919060010190620000c8565b5b50905062000132919062000136565b5090565b5b808211156200015157600081600090555060010162000137565b5090565b60006200016c6200016684620002b3565b6200027f565b905080838252602082019050828560208602820111156200018c57600080fd5b60005b85811015620001c05781620001a58882620001ca565b8452602084019350602083019250506001810190506200018f565b5050509392505050565b600081519050620001db816200034f565b92915050565b600082601f830112620001f357600080fd5b81516200020584826020860162000155565b91505092915050565b6000815190506200021f8162000369565b92915050565b600080604083850312156200023957600080fd5b600083015167ffffffffffffffff8111156200025457600080fd5b6200026285828601620001e1565b925050602062000275858286016200020e565b9150509250929050565b6000604051905081810181811067ffffffffffffffff82111715620002a957620002a862000320565b5b8060405250919050565b600067ffffffffffffffff821115620002d157620002d062000320565b5b602082029050602081019050919050565b6000620002ef82620002f6565b9050919050565b600073ffffffffffffffffffffffffffffffffffffffff82169050919050565b6000819050919050565b7f4e487b7100000000000000000000000000000000000000000000000000000000600052604160045260246000fd5b6200035a81620002e2565b81146200036657600080fd5b50565b620003748162000316565b81146200038057600080fd5b50565b6117bc80620003936000396000f3fe60806040526004361061009c5760003560e01c8063777c3acf11610064578063777c3acf146101675780639e4fd68114610192578063a2fb1175146101bd578063b13c744b146101fa578063b58540ed14610237578063d826f88f146102605761009c565b80630d15fd77146100a1578063163046eb146100cc578063228cb733146100e857806330c880c3146100ff57806363f59e5d1461013c575b600080fd5b3480156100ad57600080fd5b506100b6610277565b6040516100c3919061150d565b60405180910390f35b6100e660048036038101906100e19190611084565b61027d565b005b3480156100f457600080fd5b506100fd6104ae565b005b34801561010b57600080fd5b5061012660048036038101906101219190611084565b610855565b604051610133919061150d565b60405180910390f35b34801561014857600080fd5b5061015161086d565b60405161015e919061150d565b60405180910390f35b34801561017357600080fd5b5061017c61087a565b604051610189919061150d565b60405180910390f35b34801561019e57600080fd5b506101a7610880565b6040516101b4919061150d565b60405180910390f35b3480156101c957600080fd5b506101e460048036038101906101df9190611101565b61088d565b6040516101f191906113c9565b60405180910390f35b34801561020657600080fd5b50610221600480360381019061021c9190611101565b6108cc565b60405161022e91906113c9565b60405180910390f35b34801561024357600080fd5b5061025e600480360381019061025991906110ad565b61090b565b005b34801561026c57600080fd5b50610275610a00565b005b60025481565b600154600254106102c3576040517f08c379a00000000000000000000000000000000000000000000000000000000081526004016102ba906114ed565b60405180910390fd5b670de0b6b3a764000034101561030e576040517f08c379a00000000000000000000000000000000000000000000000000000000081526004016103059061148d565b60405180910390fd5b61031781610af1565b610356576040517f08c379a000000000000000000000000000000000000000000000000000000000815260040161034d9061142d565b60405180910390fd5b61035f33610bc6565b61039e576040517f08c379a0000000000000000000000000000000000000000000000000000000008152600401610395906114ad565b60405180910390fd5b6001600360008373ffffffffffffffffffffffffffffffffffffffff1673ffffffffffffffffffffffffffffffffffffffff16815260200190815260200160002060008282546103ee9190611596565b925050819055506006339080600181540180825580915050600190039060005260206000200160009091909190916101000a81548173ffffffffffffffffffffffffffffffffffffffff021916908373ffffffffffffffffffffffffffffffffffffffff16021790555060016002600082825461046b9190611596565b925050819055507fa54b4b55bf59d86099f37de5d683b7e560a961171658f51a65b6de1d0d31ccd633826040516104a39291906113e4565b60405180910390a150565b60008054906101000a900473ffffffffffffffffffffffffffffffffffffffff1673ffffffffffffffffffffffffffffffffffffffff163373ffffffffffffffffffffffffffffffffffffffff161461053c576040517f08c379a00000000000000000000000000000000000000000000000000000000081526004016105339061146d565b60405180910390fd5b60015460025414610582576040517f08c379a00000000000000000000000000000000000000000000000000000000081526004016105799061140d565b60405180910390fd5b600061058c610c9b565b905060005b600480549050811015610724578160036000600484815481106105dd577f4e487b7100000000000000000000000000000000000000000000000000000000600052603260045260246000fd5b9060005260206000200160009054906101000a900473ffffffffffffffffffffffffffffffffffffffff1673ffffffffffffffffffffffffffffffffffffffff1673ffffffffffffffffffffffffffffffffffffffff16815260200190815260200160002054141561071157600560048281548110610685577f4e487b7100000000000000000000000000000000000000000000000000000000600052603260045260246000fd5b9060005260206000200160009054906101000a900473ffffffffffffffffffffffffffffffffffffffff169080600181540180825580915050600190039060005260206000200160009091909190916101000a81548173ffffffffffffffffffffffffffffffffffffffff021916908373ffffffffffffffffffffffffffffffffffffffff1602179055505b808061071c9061166b565b915050610591565b5060006005805490501161076d576040517f08c379a0000000000000000000000000000000000000000000000000000000008152600401610764906114cd565b60405180910390fd5b60006005805490504761078091906115ec565b905060005b60058054905081101561085057600581815481106107cc577f4e487b7100000000000000000000000000000000000000000000000000000000600052603260045260246000fd5b9060005260206000200160009054906101000a900473ffffffffffffffffffffffffffffffffffffffff1673ffffffffffffffffffffffffffffffffffffffff166108fc839081150290604051600060405180830381858888f1935050505015801561083c573d6000803e3d6000fd5b5080806108489061166b565b915050610785565b505050565b60036020528060005260406000206000915090505481565b6000600580549050905090565b60015481565b6000600480549050905090565b6005818154811061089d57600080fd5b906000526020600020016000915054906101000a900473ffffffffffffffffffffffffffffffffffffffff1681565b600481815481106108dc57600080fd5b906000526020600020016000915054906101000a900473ffffffffffffffffffffffffffffffffffffffff1681565b60008054906101000a900473ffffffffffffffffffffffffffffffffffffffff1673ffffffffffffffffffffffffffffffffffffffff163373ffffffffffffffffffffffffffffffffffffffff1614610999576040517f08c379a00000000000000000000000000000000000000000000000000000000081526004016109909061146d565b60405180910390fd5b6000600254146109de576040517f08c379a00000000000000000000000000000000000000000000000000000000081526004016109d59061144d565b60405180910390fd5b81600490805190602001906109f4929190610ec6565b50806001819055505050565b60005b600480549050811015610acc5760006003600060048481548110610a50577f4e487b7100000000000000000000000000000000000000000000000000000000600052603260045260246000fd5b9060005260206000200160009054906101000a900473ffffffffffffffffffffffffffffffffffffffff1673ffffffffffffffffffffffffffffffffffffffff1673ffffffffffffffffffffffffffffffffffffffff168152602001908152602001600020819055508080610ac49061166b565b915050610a03565b5060026000905560066000610ae19190610f50565b60056000610aef9190610f71565b565b600080600090505b600480549050811015610bbb578273ffffffffffffffffffffffffffffffffffffffff1660048281548110610b57577f4e487b7100000000000000000000000000000000000000000000000000000000600052603260045260246000fd5b9060005260206000200160009054906101000a900473ffffffffffffffffffffffffffffffffffffffff1673ffffffffffffffffffffffffffffffffffffffff161415610ba8576001915050610bc1565b8080610bb39061166b565b915050610af9565b50600090505b919050565b600080600090505b600680549050811015610c90578273ffffffffffffffffffffffffffffffffffffffff1660068281548110610c2c577f4e487b7100000000000000000000000000000000000000000000000000000000600052603260045260246000fd5b9060005260206000200160009054906101000a900473ffffffffffffffffffffffffffffffffffffffff1673ffffffffffffffffffffffffffffffffffffffff161415610c7d576000915050610c96565b8080610c889061166b565b915050610bce565b50600190505b919050565b600080600360006004600081548110610cdd577f4e487b7100000000000000000000000000000000000000000000000000000000600052603260045260246000fd5b9060005260206000200160009054906101000a900473ffffffffffffffffffffffffffffffffffffffff1673ffffffffffffffffffffffffffffffffffffffff1673ffffffffffffffffffffffffffffffffffffffff1681526020019081526020016000205490506000600190505b600480549050811015610ebe57816003600060048481548110610d98577f4e487b7100000000000000000000000000000000000000000000000000000000600052603260045260246000fd5b9060005260206000200160009054906101000a900473ffffffffffffffffffffffffffffffffffffffff1673ffffffffffffffffffffffffffffffffffffffff1673ffffffffffffffffffffffffffffffffffffffff168152602001908152602001600020541115610eab576003600060048381548110610e42577f4e487b7100000000000000000000000000000000000000000000000000000000600052603260045260246000fd5b9060005260206000200160009054906101000a900473ffffffffffffffffffffffffffffffffffffffff1673ffffffffffffffffffffffffffffffffffffffff1673ffffffffffffffffffffffffffffffffffffffff1681526020019081526020016000205491505b8080610eb69061166b565b915050610d4c565b508091505090565b828054828255906000526020600020908101928215610f3f579160200282015b82811115610f3e5782518260006101000a81548173ffffffffffffffffffffffffffffffffffffffff021916908373ffffffffffffffffffffffffffffffffffffffff16021790555091602001919060010190610ee6565b5b509050610f4c9190610f92565b5090565b5080546000825590600052602060002090810190610f6e9190610f92565b50565b5080546000825590600052602060002090810190610f8f9190610f92565b50565b5b80821115610fab576000816000905550600101610f93565b5090565b6000610fc2610fbd84611559565b611528565b90508083825260208201905082856020860282011115610fe157600080fd5b60005b858110156110115781610ff78882611030565b845260208401935060208301925050600181019050610fe4565b5050509392505050565b60008135905061102a81611741565b92915050565b60008135905061103f81611758565b92915050565b600082601f83011261105657600080fd5b8135611066848260208601610faf565b91505092915050565b60008135905061107e8161176f565b92915050565b60006020828403121561109657600080fd5b60006110a48482850161101b565b91505092915050565b600080604083850312156110c057600080fd5b600083013567ffffffffffffffff8111156110da57600080fd5b6110e685828601611045565b92505060206110f78582860161106f565b9150509250929050565b60006020828403121561111357600080fd5b60006111218482850161106f565b91505092915050565b6111338161162f565b82525050565b6111428161161d565b82525050565b6000611155601b83611585565b91507f456c656374696f6e20617265207374696c6c206f6e676f696e672100000000006000830152602082019050919050565b6000611195601383611585565b91507f43616e646964617465206e6f742076616c6964000000000000000000000000006000830152602082019050919050565b60006111d5601483611585565b91507f456c656374696f6e20696e2070726f67726573730000000000000000000000006000830152602082019050919050565b6000611215600a83611585565b91507f4f6e6c792061646d696e000000000000000000000000000000000000000000006000830152602082019050919050565b6000611255602983611585565b91507f596f75206861766520746f2073656e64206174206c656173742031206574686560008301527f7220746f20766f746500000000000000000000000000000000000000000000006020830152604082019050919050565b60006112bb602b83611585565b91507f41646472657373206f6620766f746572206e6f742076616c6964206f7220616c60008301527f726561647920766f7465640000000000000000000000000000000000000000006020830152604082019050919050565b6000611321601083611585565b91507f4e6f2077696e6e657220666f756e6421000000000000000000000000000000006000830152602082019050919050565b6000611361602783611585565b91507f456c656374696f6e20636c6f7365642c207761697420666f7220746865206e6560008301527f7720726f756e64000000000000000000000000000000000000000000000000006020830152604082019050919050565b6113c381611661565b82525050565b60006020820190506113de600083018461112a565b92915050565b60006040820190506113f96000830185611139565b6114066020830184611139565b9392505050565b6000602082019050818103600083015261142681611148565b9050919050565b6000602082019050818103600083015261144681611188565b9050919050565b60006020820190508181036000830152611466816111c8565b9050919050565b6000602082019050818103600083015261148681611208565b9050919050565b600060208201905081810360008301526114a681611248565b9050919050565b600060208201905081810360008301526114c6816112ae565b9050919050565b600060208201905081810360008301526114e681611314565b9050919050565b6000602082019050818103600083015261150681611354565b9050919050565b600060208201905061152260008301846113ba565b92915050565b6000604051905081810181811067ffffffffffffffff8211171561154f5761154e611712565b5b8060405250919050565b600067ffffffffffffffff82111561157457611573611712565b5b602082029050602081019050919050565b600082825260208201905092915050565b60006115a182611661565b91506115ac83611661565b9250827fffffffffffffffffffffffffffffffffffffffffffffffffffffffffffffffff038211156115e1576115e06116b4565b5b828201905092915050565b60006115f782611661565b915061160283611661565b925082611612576116116116e3565b5b828204905092915050565b600061162882611641565b9050919050565b600061163a82611641565b9050919050565b600073ffffffffffffffffffffffffffffffffffffffff82169050919050565b6000819050919050565b600061167682611661565b91507fffffffffffffffffffffffffffffffffffffffffffffffffffffffffffffffff8214156116a9576116a86116b4565b5b600182019050919050565b7f4e487b7100000000000000000000000000000000000000000000000000000000600052601160045260246000fd5b7f4e487b7100000000000000000000000000000000000000000000000000000000600052601260045260246000fd5b7f4e487b7100000000000000000000000000000000000000000000000000000000600052604160045260246000fd5b61174a8161161d565b811461175557600080fd5b50565b6117618161162f565b811461176c57600080fd5b50565b61177881611661565b811461178357600080fd5b5056fea26469706673582212203411b7084521db68dc9c33abef45e07f57d6bc504a3ce31c0db6d5b3d25a468c64736f6c63430008000033",
  "immutableReferences": {},
  "source": "// SPDX-License-Identifier: GPL-3.0\r\npragma solidity >=0.8.0;\r\n// We have to specify what version of compiler this code will compile with\r\n\r\ncontract Election {\r\n    \r\n    address private owner;\r\n    uint256 public maxVotes;\r\n    uint256 public totalVotes;\r\n    \r\n    /* mapping field below is equivalent to an associative array or hash.\r\n    The key of the mapping is candidate name stored as type bytes32 and value is\r\n    an unsigned integer to store the vote count\r\n    */\r\n    mapping (address => uint256) public votesReceived;\r\n      \r\n    address payable[] public candidateList;\r\n    address payable[] public winners;\r\n    address[] private voterList;\r\n    \r\n    // events\r\n    event Vote(address voter, address voted);\r\n    \r\n    modifier onlyAdmin() {\r\n        require(msg.sender == owner, \"Only admin\");\r\n        _;\r\n    }\r\n    \r\n    \r\n    /* This is the constructor which will be called once when you\r\n    deploy the contract to the blockchain. When we deploy the contract,\r\n    we will pass an array of candidates who will be contesting in the election.\r\n    We also pass a paramether that indicate the max number of votes allowed\r\n    */\r\n    constructor(address payable[] memory candidateNames, uint256 _maxVotes) {\r\n        owner = msg.sender;\r\n        candidateList = candidateNames;\r\n        maxVotes = _maxVotes;\r\n        totalVotes = 0;\r\n    }\r\n    \r\n    \r\n    // This function increments the vote count for the specified candidate. This\r\n    // is equivalent to casting a vote\r\n    function voteForCandidate(address candidate) public payable {\r\n        require(totalVotes < maxVotes, \"Election closed, wait for the new round\");\r\n        require(msg.value >= 1 ether, \"You have to send at least 1 ether to vote\");\r\n        require(validCandidate(candidate), \"Candidate not valid\");\r\n        require(validVoter(msg.sender), \"Address of voter not valid or already voted\");\r\n        votesReceived[candidate] += 1;\r\n        voterList.push(msg.sender);\r\n        totalVotes += 1;\r\n        emit Vote(msg.sender, candidate);\r\n    }\r\n    \r\n    // Pick the winner and reward him\r\n    function reward() public onlyAdmin {\r\n        require(totalVotes == maxVotes, \"Election are still ongoing!\");\r\n        uint256 voteToWin = findVoteToWin();\r\n        for(uint256 i=0; i<candidateList.length; i++){\r\n            if(votesReceived[candidateList[i]] == voteToWin){\r\n                winners.push(candidateList[i]);\r\n            }\r\n        }\r\n        \r\n        require(winners.length > 0, \"No winner found!\");\r\n        uint256 prize = address(this).balance / winners.length;\r\n        \r\n        for (uint i=0; i<winners.length; i++){\r\n            payable(winners[i]).transfer(prize);\r\n        }\r\n    }\r\n    \r\n    // Reset the election\r\n    function reset() public {\r\n        for(uint i=0; i<candidateList.length; i++){\r\n            votesReceived[candidateList[i]] = 0;\r\n        }\r\n        delete totalVotes;\r\n        delete voterList;\r\n        delete winners;\r\n\r\n    }\r\n    \r\n    // Modify the list of candidates and the required votes to end the election\r\n    function modifyParams(address payable[] memory candidateNames,  uint256 _maxVotes) public onlyAdmin{\r\n        require(totalVotes == 0, \"Election in progress\");\r\n        candidateList = candidateNames;\r\n        maxVotes = _maxVotes;\r\n    }\r\n    \r\n    // Find the required number to win\r\n    function findVoteToWin() private view returns (uint256) {\r\n        uint256 voteToWin = votesReceived[candidateList[0]];\r\n        for(uint i=1; i<candidateList.length; i++){\r\n            if(votesReceived[candidateList[i]] > voteToWin){\r\n                voteToWin = votesReceived[candidateList[i]];\r\n            }\r\n        }\r\n        return voteToWin;\r\n    } \r\n    \r\n    // This function check if an address can vote\r\n    function validVoter(address voter) private view returns (bool) {\r\n        for(uint i = 0; i < voterList.length; i++) {\r\n            if (voterList[i] == voter) {\r\n                return false;\r\n            }\r\n        }\r\n        return true;\r\n    }\r\n        \r\n    // This function check if an address is a candidate\r\n    function validCandidate(address candidate) private view returns (bool) {\r\n        for(uint i = 0; i < candidateList.length; i++) {\r\n            if (candidateList[i] == candidate) {\r\n                return true;\r\n            }\r\n        }\r\n        return false;\r\n    }\r\n\r\n    function getSizeCandidate() public view returns (uint256) {\r\n        return candidateList.length;\r\n    }\r\n\r\n     function getSizeWinners() public view returns (uint256) {\r\n        return winners.length;\r\n    }\r\n}",
  "sourcePath": "C:/Users/adrian.vitelus/Desktop/Code/Blockchain/Corso/terza/elections/contracts/Election.sol",
  "compiler": {
    "name": "solc",
    "version": "0.8.0+commit.c7dfd78e.Emscripten.clang"
  },
  "schemaVersion": "3.3.3",
  "updatedAt": "2021-10-15T09:03:06.011Z",
  "networkType": "ethereum",
  "devdoc": {
    "kind": "dev",
    "methods": {},
    "version": 1
  },
  "userdoc": {
    "kind": "user",
    "methods": {},
    "version": 1
  }
}