{
  "contractName": "Election",
  "abi": [
    {
      "inputs": [
        {
          "internalType": "address payable[]",
          "name": "candidateNames",
          "type": "address[]"
        },
        {
          "internalType": "uint256",
          "name": "_maxVotes",
          "type": "uint256"
        }
      ],
      "stateMutability": "nonpayable",
      "type": "constructor"
    },
    {
      "anonymous": false,
      "inputs": [
        {
          "indexed": false,
          "internalType": "uint256",
          "name": "prize",
          "type": "uint256"
        },
        {
          "indexed": false,
          "internalType": "uint256",
          "name": "totalBalance",
          "type": "uint256"
        }
      ],
      "name": "Prize",
      "type": "event"
    },
    {
      "anonymous": false,
      "inputs": [
        {
          "indexed": false,
          "internalType": "address",
          "name": "voter",
          "type": "address"
        },
        {
          "indexed": false,
          "internalType": "address",
          "name": "voted",
          "type": "address"
        }
      ],
      "name": "Vote",
      "type": "event"
    },
    {
      "inputs": [
        {
          "internalType": "uint256",
          "name": "",
          "type": "uint256"
        }
      ],
      "name": "candidateList",
      "outputs": [
        {
          "internalType": "address payable",
          "name": "",
          "type": "address"
        }
      ],
      "stateMutability": "view",
      "type": "function",
      "constant": true
    },
    {
      "inputs": [],
      "name": "maxVotes",
      "outputs": [
        {
          "internalType": "uint256",
          "name": "",
          "type": "uint256"
        }
      ],
      "stateMutability": "view",
      "type": "function",
      "constant": true
    },
    {
      "inputs": [],
      "name": "totalVotes",
      "outputs": [
        {
          "internalType": "uint256",
          "name": "",
          "type": "uint256"
        }
      ],
      "stateMutability": "view",
      "type": "function",
      "constant": true
    },
    {
      "inputs": [
        {
          "internalType": "address",
          "name": "",
          "type": "address"
        }
      ],
      "name": "votesReceived",
      "outputs": [
        {
          "internalType": "uint256",
          "name": "",
          "type": "uint256"
        }
      ],
      "stateMutability": "view",
      "type": "function",
      "constant": true
    },
    {
      "inputs": [
        {
          "internalType": "address",
          "name": "candidate",
          "type": "address"
        }
      ],
      "name": "voteForCandidate",
      "outputs": [],
      "stateMutability": "payable",
      "type": "function",
      "payable": true
    },
    {
      "inputs": [],
      "name": "reward",
      "outputs": [],
      "stateMutability": "nonpayable",
      "type": "function"
    },
    {
      "inputs": [
        {
          "internalType": "address payable[]",
          "name": "candidateNames",
          "type": "address[]"
        },
        {
          "internalType": "uint256",
          "name": "_maxVotes",
          "type": "uint256"
        }
      ],
      "name": "modifyParams",
      "outputs": [],
      "stateMutability": "nonpayable",
      "type": "function"
    },
    {
      "inputs": [],
      "name": "getCandidatesNumber",
      "outputs": [
        {
          "internalType": "uint256",
          "name": "",
          "type": "uint256"
        }
      ],
      "stateMutability": "view",
      "type": "function",
      "constant": true
    }
  ],
  "bytecode": "0x608060405260006002553480156200001657600080fd5b50604051620019ce380380620019ce83398181016040528101906200003c919062000222565b336000806101000a81548173ffffffffffffffffffffffffffffffffffffffff021916908373ffffffffffffffffffffffffffffffffffffffff160217905550816004908051906020019062000094929190620000a4565b5080600181905550505062000380565b82805482825590600052602060002090810192821562000120579160200282015b828111156200011f5782518260006101000a81548173ffffffffffffffffffffffffffffffffffffffff021916908373ffffffffffffffffffffffffffffffffffffffff16021790555091602001919060010190620000c5565b5b5090506200012f919062000133565b5090565b5b808211156200014e57600081600090555060010162000134565b5090565b6000620001696200016384620002b0565b6200027c565b905080838252602082019050828560208602820111156200018957600080fd5b60005b85811015620001bd5781620001a28882620001c7565b8452602084019350602083019250506001810190506200018c565b5050509392505050565b600081519050620001d8816200034c565b92915050565b600082601f830112620001f057600080fd5b81516200020284826020860162000152565b91505092915050565b6000815190506200021c8162000366565b92915050565b600080604083850312156200023657600080fd5b600083015167ffffffffffffffff8111156200025157600080fd5b6200025f85828601620001de565b925050602062000272858286016200020b565b9150509250929050565b6000604051905081810181811067ffffffffffffffff82111715620002a657620002a56200031d565b5b8060405250919050565b600067ffffffffffffffff821115620002ce57620002cd6200031d565b5b602082029050602081019050919050565b6000620002ec82620002f3565b9050919050565b600073ffffffffffffffffffffffffffffffffffffffff82169050919050565b6000819050919050565b7f4e487b7100000000000000000000000000000000000000000000000000000000600052604160045260246000fd5b6200035781620002df565b81146200036357600080fd5b50565b620003718162000313565b81146200037d57600080fd5b50565b61163e80620003906000396000f3fe60806040526004361061007b5760003560e01c8063777c3acf1161004e578063777c3acf1461011b578063b13c744b14610146578063b58540ed14610183578063bd0c3928146101ac5761007b565b80630d15fd7714610080578063163046eb146100ab578063228cb733146100c757806330c880c3146100de575b600080fd5b34801561008c57600080fd5b506100956101d7565b6040516100a29190611366565b60405180910390f35b6100c560048036038101906100c09190610edd565b6101dd565b005b3480156100d357600080fd5b506100dc61040e565b005b3480156100ea57600080fd5b5061010560048036038101906101009190610edd565b6107f6565b6040516101129190611366565b60405180910390f35b34801561012757600080fd5b5061013061080e565b60405161013d9190611366565b60405180910390f35b34801561015257600080fd5b5061016d60048036038101906101689190610f5a565b610814565b60405161017a9190611222565b60405180910390f35b34801561018f57600080fd5b506101aa60048036038101906101a59190610f06565b610853565b005b3480156101b857600080fd5b506101c1610948565b6040516101ce9190611366565b60405180910390f35b60025481565b60015460025410610223576040517f08c379a000000000000000000000000000000000000000000000000000000000815260040161021a90611346565b60405180910390fd5b670de0b6b3a764000034101561026e576040517f08c379a0000000000000000000000000000000000000000000000000000000008152600401610265906112e6565b60405180910390fd5b61027781610955565b6102b6576040517f08c379a00000000000000000000000000000000000000000000000000000000081526004016102ad90611286565b60405180910390fd5b6102bf33610a2a565b6102fe576040517f08c379a00000000000000000000000000000000000000000000000000000000081526004016102f590611306565b60405180910390fd5b6001600360008373ffffffffffffffffffffffffffffffffffffffff1673ffffffffffffffffffffffffffffffffffffffff168152602001908152602001600020600082825461034e9190611418565b925050819055506006339080600181540180825580915050600190039060005260206000200160009091909190916101000a81548173ffffffffffffffffffffffffffffffffffffffff021916908373ffffffffffffffffffffffffffffffffffffffff1602179055506001600260008282546103cb9190611418565b925050819055507fa54b4b55bf59d86099f37de5d683b7e560a961171658f51a65b6de1d0d31ccd6338260405161040392919061123d565b60405180910390a150565b60008054906101000a900473ffffffffffffffffffffffffffffffffffffffff1673ffffffffffffffffffffffffffffffffffffffff163373ffffffffffffffffffffffffffffffffffffffff161461049c576040517f08c379a0000000000000000000000000000000000000000000000000000000008152600401610493906112c6565b60405180910390fd5b600154600254146104e2576040517f08c379a00000000000000000000000000000000000000000000000000000000081526004016104d990611266565b60405180910390fd5b60006104ec610aff565b905060005b6004805490508110156106845781600360006004848154811061053d577f4e487b7100000000000000000000000000000000000000000000000000000000600052603260045260246000fd5b9060005260206000200160009054906101000a900473ffffffffffffffffffffffffffffffffffffffff1673ffffffffffffffffffffffffffffffffffffffff1673ffffffffffffffffffffffffffffffffffffffff168152602001908152602001600020541415610671576005600482815481106105e5577f4e487b7100000000000000000000000000000000000000000000000000000000600052603260045260246000fd5b9060005260206000200160009054906101000a900473ffffffffffffffffffffffffffffffffffffffff169080600181540180825580915050600190039060005260206000200160009091909190916101000a81548173ffffffffffffffffffffffffffffffffffffffff021916908373ffffffffffffffffffffffffffffffffffffffff1602179055505b808061067c906114ed565b9150506104f1565b506000600580549050116106cd576040517f08c379a00000000000000000000000000000000000000000000000000000000081526004016106c490611326565b60405180910390fd5b6000600580549050476106e0919061146e565b90507f84b55a87ae61f998fb034c3393da4f6f2e5eca7340f11c89e5c8e827afcea86f8147604051610713929190611381565b60405180910390a160005b6005805490508110156107e95760058181548110610765577f4e487b7100000000000000000000000000000000000000000000000000000000600052603260045260246000fd5b9060005260206000200160009054906101000a900473ffffffffffffffffffffffffffffffffffffffff1673ffffffffffffffffffffffffffffffffffffffff166108fc839081150290604051600060405180830381858888f193505050501580156107d5573d6000803e3d6000fd5b5080806107e1906114ed565b91505061071e565b506107f2610d2a565b5050565b60036020528060005260406000206000915090505481565b60015481565b6004818154811061082457600080fd5b906000526020600020016000915054906101000a900473ffffffffffffffffffffffffffffffffffffffff1681565b60008054906101000a900473ffffffffffffffffffffffffffffffffffffffff1673ffffffffffffffffffffffffffffffffffffffff163373ffffffffffffffffffffffffffffffffffffffff16146108e1576040517f08c379a00000000000000000000000000000000000000000000000000000000081526004016108d8906112c6565b60405180910390fd5b600060025414610926576040517f08c379a000000000000000000000000000000000000000000000000000000000815260040161091d906112a6565b60405180910390fd5b816004908051906020019061093c929190610d40565b50806001819055505050565b6000600480549050905090565b600080600090505b600480549050811015610a1f578273ffffffffffffffffffffffffffffffffffffffff16600482815481106109bb577f4e487b7100000000000000000000000000000000000000000000000000000000600052603260045260246000fd5b9060005260206000200160009054906101000a900473ffffffffffffffffffffffffffffffffffffffff1673ffffffffffffffffffffffffffffffffffffffff161415610a0c576001915050610a25565b8080610a17906114ed565b91505061095d565b50600090505b919050565b600080600090505b600680549050811015610af4578273ffffffffffffffffffffffffffffffffffffffff1660068281548110610a90577f4e487b7100000000000000000000000000000000000000000000000000000000600052603260045260246000fd5b9060005260206000200160009054906101000a900473ffffffffffffffffffffffffffffffffffffffff1673ffffffffffffffffffffffffffffffffffffffff161415610ae1576000915050610afa565b8080610aec906114ed565b915050610a32565b50600190505b919050565b600080600360006004600081548110610b41577f4e487b7100000000000000000000000000000000000000000000000000000000600052603260045260246000fd5b9060005260206000200160009054906101000a900473ffffffffffffffffffffffffffffffffffffffff1673ffffffffffffffffffffffffffffffffffffffff1673ffffffffffffffffffffffffffffffffffffffff1681526020019081526020016000205490506000600190505b600480549050811015610d2257816003600060048481548110610bfc577f4e487b7100000000000000000000000000000000000000000000000000000000600052603260045260246000fd5b9060005260206000200160009054906101000a900473ffffffffffffffffffffffffffffffffffffffff1673ffffffffffffffffffffffffffffffffffffffff1673ffffffffffffffffffffffffffffffffffffffff168152602001908152602001600020541115610d0f576003600060048381548110610ca6577f4e487b7100000000000000000000000000000000000000000000000000000000600052603260045260246000fd5b9060005260206000200160009054906101000a900473ffffffffffffffffffffffffffffffffffffffff1673ffffffffffffffffffffffffffffffffffffffff1673ffffffffffffffffffffffffffffffffffffffff1681526020019081526020016000205491505b8080610d1a906114ed565b915050610bb0565b508091505090565b60026000905560056000610d3e9190610dca565b565b828054828255906000526020600020908101928215610db9579160200282015b82811115610db85782518260006101000a81548173ffffffffffffffffffffffffffffffffffffffff021916908373ffffffffffffffffffffffffffffffffffffffff16021790555091602001919060010190610d60565b5b509050610dc69190610deb565b5090565b5080546000825590600052602060002090810190610de89190610deb565b50565b5b80821115610e04576000816000905550600101610dec565b5090565b6000610e1b610e16846113db565b6113aa565b90508083825260208201905082856020860282011115610e3a57600080fd5b60005b85811015610e6a5781610e508882610e89565b845260208401935060208301925050600181019050610e3d565b5050509392505050565b600081359050610e83816115c3565b92915050565b600081359050610e98816115da565b92915050565b600082601f830112610eaf57600080fd5b8135610ebf848260208601610e08565b91505092915050565b600081359050610ed7816115f1565b92915050565b600060208284031215610eef57600080fd5b6000610efd84828501610e74565b91505092915050565b60008060408385031215610f1957600080fd5b600083013567ffffffffffffffff811115610f3357600080fd5b610f3f85828601610e9e565b9250506020610f5085828601610ec8565b9150509250929050565b600060208284031215610f6c57600080fd5b6000610f7a84828501610ec8565b91505092915050565b610f8c816114b1565b82525050565b610f9b8161149f565b82525050565b6000610fae601b83611407565b91507f456c656374696f6e20617265207374696c6c206f6e676f696e672100000000006000830152602082019050919050565b6000610fee601383611407565b91507f43616e646964617465206e6f742076616c6964000000000000000000000000006000830152602082019050919050565b600061102e601483611407565b91507f456c656374696f6e20696e2070726f67726573730000000000000000000000006000830152602082019050919050565b600061106e600a83611407565b91507f4f6e6c792061646d696e000000000000000000000000000000000000000000006000830152602082019050919050565b60006110ae602983611407565b91507f596f75206861766520746f2073656e64206174206c656173742031206574686560008301527f7220746f20766f746500000000000000000000000000000000000000000000006020830152604082019050919050565b6000611114602b83611407565b91507f41646472657373206f6620766f746572206e6f742076616c6964206f7220616c60008301527f726561647920766f7465640000000000000000000000000000000000000000006020830152604082019050919050565b600061117a601083611407565b91507f4e6f2077696e6e657220666f756e6421000000000000000000000000000000006000830152602082019050919050565b60006111ba602783611407565b91507f456c656374696f6e20636c6f7365642c207761697420666f7220746865206e6560008301527f7720726f756e64000000000000000000000000000000000000000000000000006020830152604082019050919050565b61121c816114e3565b82525050565b60006020820190506112376000830184610f83565b92915050565b60006040820190506112526000830185610f92565b61125f6020830184610f92565b9392505050565b6000602082019050818103600083015261127f81610fa1565b9050919050565b6000602082019050818103600083015261129f81610fe1565b9050919050565b600060208201905081810360008301526112bf81611021565b9050919050565b600060208201905081810360008301526112df81611061565b9050919050565b600060208201905081810360008301526112ff816110a1565b9050919050565b6000602082019050818103600083015261131f81611107565b9050919050565b6000602082019050818103600083015261133f8161116d565b9050919050565b6000602082019050818103600083015261135f816111ad565b9050919050565b600060208201905061137b6000830184611213565b92915050565b60006040820190506113966000830185611213565b6113a36020830184611213565b9392505050565b6000604051905081810181811067ffffffffffffffff821117156113d1576113d0611594565b5b8060405250919050565b600067ffffffffffffffff8211156113f6576113f5611594565b5b602082029050602081019050919050565b600082825260208201905092915050565b6000611423826114e3565b915061142e836114e3565b9250827fffffffffffffffffffffffffffffffffffffffffffffffffffffffffffffffff0382111561146357611462611536565b5b828201905092915050565b6000611479826114e3565b9150611484836114e3565b92508261149457611493611565565b5b828204905092915050565b60006114aa826114c3565b9050919050565b60006114bc826114c3565b9050919050565b600073ffffffffffffffffffffffffffffffffffffffff82169050919050565b6000819050919050565b60006114f8826114e3565b91507fffffffffffffffffffffffffffffffffffffffffffffffffffffffffffffffff82141561152b5761152a611536565b5b600182019050919050565b7f4e487b7100000000000000000000000000000000000000000000000000000000600052601160045260246000fd5b7f4e487b7100000000000000000000000000000000000000000000000000000000600052601260045260246000fd5b7f4e487b7100000000000000000000000000000000000000000000000000000000600052604160045260246000fd5b6115cc8161149f565b81146115d757600080fd5b50565b6115e3816114b1565b81146115ee57600080fd5b50565b6115fa816114e3565b811461160557600080fd5b5056fea264697066735822122069913bfc3969bb41e6663cce76fadd2cbafc29a550f943a1770b1cd17193fd0764736f6c63430008000033",
  "immutableReferences": {},
  "source": "// SPDX-License-Identifier: GPL-3.0\r\npragma solidity >=0.8.0;\r\n// We have to specify what version of compiler this code will compile with\r\n\r\ncontract Election {\r\n    \r\n    address private owner;\r\n    uint256 public maxVotes;\r\n    uint256 public totalVotes = 0;\r\n    \r\n    /* mapping field below is equivalent to an associative array or hash.\r\n    The key of the mapping is candidate name stored as type bytes32 and value is\r\n    an unsigned integer to store the vote count\r\n    */\r\n    mapping (address => uint256) public votesReceived;\r\n      \r\n    address payable[] public candidateList;\r\n    address payable[] private winners;\r\n    address[] private voterList;\r\n    \r\n    // events\r\n    event Vote(address voter, address voted);\r\n    event Prize(uint256 prize, uint256 totalBalance);\r\n    \r\n    modifier onlyAdmin() {\r\n        require(msg.sender == owner, \"Only admin\");\r\n        _;\r\n    }\r\n    \r\n    \r\n    /* This is the constructor which will be called once when you\r\n    deploy the contract to the blockchain. When we deploy the contract,\r\n    we will pass an array of candidates who will be contesting in the election.\r\n    We also pass a paramether that indicate the max number of votes allowed\r\n    */\r\n    constructor(address payable[] memory candidateNames, uint256 _maxVotes) {\r\n        owner = msg.sender;\r\n        candidateList = candidateNames;\r\n        maxVotes = _maxVotes;\r\n    }\r\n    \r\n    \r\n    // This function increments the vote count for the specified candidate. This\r\n    // is equivalent to casting a vote\r\n    function voteForCandidate(address candidate) public payable {\r\n        require(totalVotes < maxVotes, \"Election closed, wait for the new round\");\r\n        require(msg.value >= 1 ether, \"You have to send at least 1 ether to vote\");\r\n        require(validCandidate(candidate), \"Candidate not valid\");\r\n        require(validVoter(msg.sender), \"Address of voter not valid or already voted\");\r\n        votesReceived[candidate] += 1;\r\n        voterList.push(msg.sender);\r\n        totalVotes += 1;\r\n        emit Vote(msg.sender, candidate);\r\n    }\r\n    \r\n    // Pick the winner and reward him\r\n    function reward() public onlyAdmin {\r\n        require(totalVotes == maxVotes, \"Election are still ongoing!\");\r\n        uint256 voteToWin = findVoteToWin();\r\n        for(uint256 i=0; i<candidateList.length; i++){\r\n            if(votesReceived[candidateList[i]] == voteToWin){\r\n                winners.push(candidateList[i]);\r\n            }\r\n        }\r\n        \r\n        require(winners.length > 0, \"No winner found!\");\r\n        uint256 prize = address(this).balance / winners.length;\r\n        \r\n        emit Prize(prize,address(this).balance);\r\n        \r\n        for (uint i=0; i<winners.length; i++){\r\n            payable(winners[i]).transfer(prize);\r\n        }\r\n        reset();\r\n        \r\n    }\r\n    \r\n    // Reset the election\r\n    function reset() private {\r\n        delete totalVotes;\r\n        delete winners;\r\n    }\r\n    \r\n    // Modify the list of candidates and the required votes to end the election\r\n    function modifyParams(address payable[] memory candidateNames,  uint256 _maxVotes) public onlyAdmin{\r\n        require(totalVotes == 0, \"Election in progress\");\r\n        candidateList = candidateNames;\r\n        maxVotes = _maxVotes;\r\n    }\r\n    \r\n    // Find the required number to win\r\n    function findVoteToWin() private view returns (uint256) {\r\n        uint256 voteToWin = votesReceived[candidateList[0]];\r\n        for(uint i=1; i<candidateList.length; i++){\r\n            if(votesReceived[candidateList[i]] > voteToWin){\r\n                voteToWin = votesReceived[candidateList[i]];\r\n            }\r\n        }\r\n        return voteToWin;\r\n    } \r\n    \r\n    // This function check if an address can vote\r\n    function validVoter(address voter) private view returns (bool) {\r\n        for(uint i = 0; i < voterList.length; i++) {\r\n            if (voterList[i] == voter) {\r\n                return false;\r\n            }\r\n        }\r\n        return true;\r\n    }\r\n        \r\n    // This function check if an address is a candidate\r\n    function validCandidate(address candidate) private view returns (bool) {\r\n        for(uint i = 0; i < candidateList.length; i++) {\r\n            if (candidateList[i] == candidate) {\r\n                return true;\r\n            }\r\n        }\r\n        return false;\r\n    }\r\n\r\n    function getCandidatesNumber() public view returns(uint256){\r\n        return candidateList.length;\r\n    }\r\n}",
  "sourcePath": "C:/Users/adrian.vitelus/Desktop/Code/Blockchain/Corso/terza/elections/contracts/Election.sol",
  "compiler": {
    "name": "solc",
    "version": "0.8.0+commit.c7dfd78e.Emscripten.clang"
  },
  "schemaVersion": "3.3.3",
  "updatedAt": "2021-10-07T14:43:47.796Z",
  "networkType": "ethereum",
  "devdoc": {
    "kind": "dev",
    "methods": {},
    "version": 1
  },
  "userdoc": {
    "kind": "user",
    "methods": {},
    "version": 1
  }
}